{
  "contractName": "PuggMining",
  "abi": [
    {
      "anonymous": false,
      "inputs": [
        {
          "indexed": false,
          "internalType": "uint256",
          "name": "Id",
          "type": "uint256"
        },
        {
          "indexed": false,
          "internalType": "uint256",
          "name": "points",
          "type": "uint256"
        },
        {
          "indexed": false,
          "internalType": "uint256",
          "name": "limit",
          "type": "uint256"
        }
      ],
      "name": "AddTask",
      "type": "event"
    },
    {
      "anonymous": false,
      "inputs": [
        {
          "indexed": false,
          "internalType": "uint256",
          "name": "Id",
          "type": "uint256"
        }
      ],
      "name": "DelTask",
      "type": "event"
    },
    {
      "anonymous": false,
      "inputs": [
        {
          "indexed": false,
          "internalType": "uint256[]",
          "name": "Ids",
          "type": "uint256[]"
        },
        {
          "indexed": false,
          "internalType": "address[]",
          "name": "addrs",
          "type": "address[]"
        }
      ],
      "name": "DoneTasks",
      "type": "event"
    },
    {
      "anonymous": false,
      "inputs": [
        {
          "indexed": true,
          "internalType": "address",
          "name": "previousOwner",
          "type": "address"
        },
        {
          "indexed": true,
          "internalType": "address",
          "name": "newOwner",
          "type": "address"
        }
      ],
      "name": "OwnershipTransferred",
      "type": "event"
    },
    {
      "anonymous": false,
      "inputs": [
        {
          "indexed": false,
          "internalType": "address",
          "name": "account",
          "type": "address"
        }
      ],
      "name": "Paused",
      "type": "event"
    },
    {
      "anonymous": false,
      "inputs": [
        {
          "indexed": false,
          "internalType": "address",
          "name": "account",
          "type": "address"
        }
      ],
      "name": "Unpaused",
      "type": "event"
    },
    {
      "anonymous": false,
      "inputs": [
        {
          "indexed": false,
          "internalType": "uint256",
          "name": "amount",
          "type": "uint256"
        }
      ],
      "name": "WithdrawBaseToken",
      "type": "event"
    },
    {
      "anonymous": false,
      "inputs": [
        {
          "indexed": false,
          "internalType": "uint256",
          "name": "amount",
          "type": "uint256"
        }
      ],
      "name": "WithdrawPoints",
      "type": "event"
    },
    {
      "inputs": [
        {
          "internalType": "uint256",
          "name": "",
          "type": "uint256"
        }
      ],
      "name": "allIds",
      "outputs": [
        {
          "internalType": "uint256",
          "name": "",
          "type": "uint256"
        }
      ],
      "stateMutability": "view",
      "type": "function"
    },
    {
      "inputs": [
        {
          "internalType": "address",
          "name": "",
          "type": "address"
        }
      ],
      "name": "allcontributor",
      "outputs": [
        {
          "internalType": "uint256",
          "name": "points",
          "type": "uint256"
        },
        {
          "internalType": "uint256",
          "name": "balance",
          "type": "uint256"
        }
      ],
      "stateMutability": "view",
      "type": "function"
    },
    {
      "inputs": [],
      "name": "owner",
      "outputs": [
        {
          "internalType": "address",
          "name": "",
          "type": "address"
        }
      ],
      "stateMutability": "view",
      "type": "function"
    },
    {
      "inputs": [],
      "name": "paused",
      "outputs": [
        {
          "internalType": "bool",
          "name": "",
          "type": "bool"
        }
      ],
      "stateMutability": "view",
      "type": "function"
    },
    {
      "inputs": [],
      "name": "renounceOwnership",
      "outputs": [],
      "stateMutability": "nonpayable",
      "type": "function"
    },
    {
      "inputs": [
        {
          "internalType": "uint256",
          "name": "",
          "type": "uint256"
        }
      ],
      "name": "taskmap",
      "outputs": [
        {
          "internalType": "uint256",
          "name": "Id",
          "type": "uint256"
        },
        {
          "internalType": "string",
          "name": "name",
          "type": "string"
        },
        {
          "internalType": "uint256",
          "name": "points",
          "type": "uint256"
        },
        {
          "internalType": "uint8",
          "name": "active",
          "type": "uint8"
        }
      ],
      "stateMutability": "view",
      "type": "function"
    },
    {
      "inputs": [],
      "name": "tokenAddr",
      "outputs": [
        {
          "internalType": "address",
          "name": "",
          "type": "address"
        }
      ],
      "stateMutability": "view",
      "type": "function"
    },
    {
      "inputs": [
        {
          "internalType": "address",
          "name": "newOwner",
          "type": "address"
        }
      ],
      "name": "transferOwnership",
      "outputs": [],
      "stateMutability": "nonpayable",
      "type": "function"
    },
    {
      "inputs": [
        {
          "internalType": "address",
          "name": "_token",
          "type": "address"
        }
      ],
      "name": "__initialize",
      "outputs": [],
      "stateMutability": "nonpayable",
      "type": "function"
    },
    {
      "inputs": [
        {
          "internalType": "uint256",
          "name": "Id",
          "type": "uint256"
        }
      ],
      "name": "isExist",
      "outputs": [
        {
          "internalType": "bool",
          "name": "",
          "type": "bool"
        }
      ],
      "stateMutability": "view",
      "type": "function"
    },
    {
      "inputs": [
        {
          "internalType": "uint256",
          "name": "Id",
          "type": "uint256"
        },
        {
          "internalType": "string",
          "name": "name",
          "type": "string"
        },
        {
          "internalType": "uint256",
          "name": "points",
          "type": "uint256"
        },
        {
          "internalType": "uint256",
          "name": "limit",
          "type": "uint256"
        }
      ],
      "name": "addTask",
      "outputs": [],
      "stateMutability": "nonpayable",
      "type": "function"
    },
    {
      "inputs": [
        {
          "internalType": "uint256",
          "name": "Id",
          "type": "uint256"
        }
      ],
      "name": "delTask",
      "outputs": [],
      "stateMutability": "nonpayable",
      "type": "function"
    },
    {
      "inputs": [],
      "name": "getAllIds",
      "outputs": [
        {
          "internalType": "uint256[]",
          "name": "",
          "type": "uint256[]"
        }
      ],
      "stateMutability": "view",
      "type": "function"
    },
    {
      "inputs": [
        {
          "internalType": "uint256[]",
          "name": "Ids",
          "type": "uint256[]"
        },
        {
          "internalType": "address[]",
          "name": "addrs",
          "type": "address[]"
        },
        {
          "internalType": "bytes[]",
          "name": "signatures",
          "type": "bytes[]"
        }
      ],
      "name": "doneTasks",
      "outputs": [],
      "stateMutability": "nonpayable",
      "type": "function"
    },
    {
      "inputs": [
        {
          "internalType": "address",
          "name": "_token",
          "type": "address"
        }
      ],
      "name": "setToken",
      "outputs": [],
      "stateMutability": "nonpayable",
      "type": "function"
    },
    {
      "inputs": [],
      "name": "withdrawPoints",
      "outputs": [],
      "stateMutability": "nonpayable",
      "type": "function"
    },
    {
      "inputs": [],
      "name": "withdrawToken",
      "outputs": [],
      "stateMutability": "nonpayable",
      "type": "function"
    },
    {
      "inputs": [
        {
          "internalType": "string",
          "name": "_message",
          "type": "string"
        },
        {
          "internalType": "uint256",
          "name": "Id",
          "type": "uint256"
        }
      ],
      "name": "getMessageHash",
      "outputs": [
        {
          "internalType": "bytes32",
          "name": "",
          "type": "bytes32"
        }
      ],
      "stateMutability": "pure",
      "type": "function"
    },
    {
      "inputs": [
        {
          "internalType": "bytes32",
          "name": "_messageHash",
          "type": "bytes32"
        }
      ],
      "name": "getEthSignedMessageHash",
      "outputs": [
        {
          "internalType": "bytes32",
          "name": "",
          "type": "bytes32"
        }
      ],
      "stateMutability": "pure",
      "type": "function"
    },
    {
      "inputs": [
        {
          "internalType": "address",
          "name": "_signer",
          "type": "address"
        },
        {
          "internalType": "string",
          "name": "_message",
          "type": "string"
        },
        {
          "internalType": "uint256",
          "name": "Id",
          "type": "uint256"
        },
        {
          "internalType": "bytes",
          "name": "signature",
          "type": "bytes"
        }
      ],
      "name": "verify",
      "outputs": [
        {
          "internalType": "bool",
          "name": "",
          "type": "bool"
        }
      ],
      "stateMutability": "pure",
      "type": "function"
    },
    {
      "inputs": [
        {
          "internalType": "bytes32",
          "name": "_ethSignedMessageHash",
          "type": "bytes32"
        },
        {
          "internalType": "bytes",
          "name": "_signature",
          "type": "bytes"
        }
      ],
      "name": "recoverSigner",
      "outputs": [
        {
          "internalType": "address",
          "name": "",
          "type": "address"
        }
      ],
      "stateMutability": "pure",
      "type": "function"
    },
    {
      "inputs": [
        {
          "internalType": "bytes",
          "name": "sig",
          "type": "bytes"
        }
      ],
      "name": "splitSignature",
      "outputs": [
        {
          "internalType": "bytes32",
          "name": "r",
          "type": "bytes32"
        },
        {
          "internalType": "bytes32",
          "name": "s",
          "type": "bytes32"
        },
        {
          "internalType": "uint8",
          "name": "v",
          "type": "uint8"
        }
      ],
      "stateMutability": "pure",
      "type": "function"
    }
  ],
  "bytecode": "0x608060405234801561001057600080fd5b50611eef806100206000396000f3fe608060405234801561001057600080fd5b50600436106101425760003560e01c806397aba7f9116100b8578063aaa44e5c1161007c578063aaa44e5c1461029f578063ca628c78146102b4578063ca8f8ff3146102bc578063d4aa6916146102cf578063f2fde38b146102e2578063fa540801146102f557610142565b806397aba7f91461021e5780639a31ea06146102315780639b6016d414610252578063a361881514610275578063a7bb58031461027d57610142565b806359be7e9d1161010a57806359be7e9d146101be5780635c975abb146101d15780635fbe4d1d146101d9578063692776ea146101ee578063715018a61461020e5780638da5cb5b1461021657610142565b806307546f1a14610147578063144fa6d714610170578063169cbb251461018557806332949efb146101985780633ddccd78146101ab575b600080fd5b61015a61015536600461179c565b610308565b6040516101679190611b78565b60405180910390f35b61018361017e366004611782565b61034d565b005b610183610193366004611782565b6103d1565b6101836101a6366004611a04565b61049f565b6101836101b9366004611817565b610604565b6101836101cc366004611911565b61090f565b61015a610a1e565b6101e1610a27565b6040516101679190611ae6565b6102016101fc366004611911565b610a36565b6040516101679190611b83565b610183610a57565b6101e1610b03565b6101e161022c366004611929565b610b12565b61024461023f366004611782565b610b81565b604051610167929190611daf565b610265610260366004611911565b610b9a565b6040516101679493929190611d63565b610183610c51565b61029061028b36600461196e565b610dd3565b60405161016793929190611b8c565b6102a7610e17565b6040516101679190611b13565b610183610e6f565b61015a6102ca366004611911565b61100e565b6102016102dd3660046119a9565b611028565b6101836102f0366004611782565b61105b565b610201610303366004611911565b61115e565b6000806103158585611028565b905060006103228261115e565b9050866001600160a01b03166103388286610b12565b6001600160a01b031614979650505050505050565b61035561118e565b6001600160a01b0316610366610b03565b6001600160a01b0316146103af576040805162461bcd60e51b81526020600482018190526024820152600080516020611e9a833981519152604482015290519081900360640190fd5b609a80546001600160a01b0319166001600160a01b0392909216919091179055565b600054610100900460ff16806103ea57506103ea611192565b806103f8575060005460ff16155b6104335760405162461bcd60e51b815260040180806020018281038252602e815260200180611e6c602e913960400191505060405180910390fd5b600054610100900460ff1615801561045e576000805460ff1961ff0019909116610100171660011790555b6104666111a3565b61046e611255565b609a80546001600160a01b0319166001600160a01b038416179055801561049b576000805461ff00191690555b5050565b6104a761118e565b6001600160a01b03166104b8610b03565b6001600160a01b031614610501576040805162461bcd60e51b81526020600482018190526024820152600080516020611e9a833981519152604482015290519081900360640190fd5b61050a8461100e565b156105305760405162461bcd60e51b815260040161052790611bc3565b60405180910390fd5b8161054d5760405162461bcd60e51b815260040161052790611cf5565b60008481526098602090815260409091208581558451909161057691600184019187019061159d565b506002810183905560038101805460ff191660019081179091556097805491820181556000527f354a83ed9988f79f6038d4c7a7dadbad8af32f4ad6df893e0e5807a1b1944ff9018590556040517f55e74c0ad108f2ae6c875ab4dac722c0399c8464b87ac1462e60ee9292be8826906105f590879086908690611dbd565b60405180910390a15050505050565b61060c61118e565b6001600160a01b031661061d610b03565b6001600160a01b031614610666576040805162461bcd60e51b81526020600482018190526024820152600080516020611e9a833981519152604482015290519081900360640190fd5b81518351146106875760405162461bcd60e51b815260040161052790611c90565b60005b83518110156108d0576106af8482815181106106a257fe5b602002602001015161100e565b6106cb5760405162461bcd60e51b815260040161052790611c2a565b6107398382815181106106da57fe5b602002602001015160405180604001604052806011815260200170646f6e655461736b2875696e743235362960781b81525086848151811061071857fe5b602002602001015185858151811061072c57fe5b6020026020010151610308565b6107555760405162461bcd60e51b815260040161052790611c59565b60006098600086848151811061076757fe5b6020026020010151815260200190815260200160002060405180608001604052908160008201548152602001600182018054600181600116156101000203166002900480601f01602080910402602001604051908101604052809291908181526020018280546001816001161561010002031660029004801561082b5780601f106108005761010080835404028352916020019161082b565b820191906000526020600020905b81548152906001019060200180831161080e57829003601f168201915b50505091835250506002820154602082015260039091015460ff166040909101528451909150600090609990829087908690811061086557fe5b60200260200101516001600160a01b03166001600160a01b0316815260200190815260200160002090506108aa826040015182600001546112f290919063ffffffff16565b8155604082015160018201546108bf916112f2565b60019182015591909101905061068a565b507f7f2284b1987e5bf6815d86fb99139103509c037f06a786ddcd1adafc1f4dda4a8383604051610902929190611b26565b60405180910390a1505050565b61091761118e565b6001600160a01b0316610928610b03565b6001600160a01b031614610971576040805162461bcd60e51b81526020600482018190526024820152600080516020611e9a833981519152604482015290519081900360640190fd5b61097a8161100e565b6109965760405162461bcd60e51b815260040161052790611c2a565b60008181526098602052604090206003015460ff166001146109ca5760405162461bcd60e51b815260040161052790611bf3565b60008181526098602052604090819020600301805460ff19169055517f3ebbfc48089fe0b0d88d088526ef576e4c5d082ea00039709868566129cd92ae90610a13908390611b83565b60405180910390a150565b60655460ff1690565b609a546001600160a01b031681565b60978181548110610a4657600080fd5b600091825260209091200154905081565b610a5f61118e565b6001600160a01b0316610a70610b03565b6001600160a01b031614610ab9576040805162461bcd60e51b81526020600482018190526024820152600080516020611e9a833981519152604482015290519081900360640190fd5b6033546040516000916001600160a01b0316907f8be0079c531659141344cd1fd0a4f28419497f9722a3daafe3b4186f6b6457e0908390a3603380546001600160a01b0319169055565b6033546001600160a01b031690565b600080600080610b2185610dd3565b92509250925060018682858560405160008152602001604052604051610b4a9493929190611ba5565b6020604051602081039080840390855afa158015610b6c573d6000803e3d6000fd5b5050604051601f190151979650505050505050565b6099602052600090815260409020805460019091015482565b6098602090815260009182526040918290208054600180830180548651600293821615610100026000190190911692909204601f810186900486028301860190965285825291949293909290830182828015610c375780601f10610c0c57610100808354040283529160200191610c37565b820191906000526020600020905b815481529060010190602001808311610c1a57829003601f168201915b50505050600283015460039093015491929160ff16905084565b610c59610a1e565b15610c9e576040805162461bcd60e51b815260206004820152601060248201526f14185d5cd8589b194e881c185d5cd95960821b604482015290519081900360640190fd5b600060996000610cac61118e565b6001600160a01b03166001600160a01b0316815260200190815260200160002060010154905060008111610cf25760405162461bcd60e51b815260040161052790611cc7565b600060996000610d0061118e565b6001600160a01b039081168252602082019290925260400160002060010191909155609a541663a9059cbb610d3361118e565b836040518363ffffffff1660e01b8152600401610d51929190611afa565b602060405180830381600087803b158015610d6b57600080fd5b505af1158015610d7f573d6000803e3d6000fd5b505050506040513d601f19601f82011682018060405250810190610da391906118f1565b507f9d1f9833d9dc32a135e4e9514abca65cfe302b0a42c9fe4ecfb741cc7078168781604051610a139190611b83565b60008060008351604114610df95760405162461bcd60e51b815260040161052790611d2c565b50505060208101516040820151606090920151909260009190911a90565b60606097805480602002602001604051908101604052809291908181526020018280548015610e6557602002820191906000526020600020905b815481526020019060010190808311610e51575b5050505050905090565b610e7761118e565b6001600160a01b0316610e88610b03565b6001600160a01b031614610ed1576040805162461bcd60e51b81526020600482018190526024820152600080516020611e9a833981519152604482015290519081900360640190fd5b609a546040516370a0823160e01b81526000916001600160a01b0316906370a0823190610f02903090600401611ae6565b60206040518083038186803b158015610f1a57600080fd5b505afa158015610f2e573d6000803e3d6000fd5b505050506040513d601f19601f82011682018060405250810190610f5291906119ec565b609a549091506001600160a01b031663a9059cbb610f6e61118e565b836040518363ffffffff1660e01b8152600401610f8c929190611afa565b602060405180830381600087803b158015610fa657600080fd5b505af1158015610fba573d6000803e3d6000fd5b505050506040513d601f19601f82011682018060405250810190610fde91906118f1565b507fb2bb0dfcb129450f60feb4b7ed006d063b0e1687420fd4e6f3e7ebaf7540aa9081604051610a139190611b83565b60008181526098602052604090206002015415155b919050565b6000828260405160200161103d929190611a93565b60405160208183030381529060405280519060200120905092915050565b61106361118e565b6001600160a01b0316611074610b03565b6001600160a01b0316146110bd576040805162461bcd60e51b81526020600482018190526024820152600080516020611e9a833981519152604482015290519081900360640190fd5b6001600160a01b0381166111025760405162461bcd60e51b8152600401808060200182810382526026815260200180611e466026913960400191505060405180910390fd5b6033546040516001600160a01b038084169216907f8be0079c531659141344cd1fd0a4f28419497f9722a3daafe3b4186f6b6457e090600090a3603380546001600160a01b0319166001600160a01b0392909216919091179055565b6000816040516020016111719190611ab5565b604051602081830303815290604052805190602001209050919050565b3390565b600061119d30611353565b15905090565b600054610100900460ff16806111bc57506111bc611192565b806111ca575060005460ff16155b6112055760405162461bcd60e51b815260040180806020018281038252602e815260200180611e6c602e913960400191505060405180910390fd5b600054610100900460ff16158015611230576000805460ff1961ff0019909116610100171660011790555b611238611359565b6112406113f9565b8015611252576000805461ff00191690555b50565b600054610100900460ff168061126e575061126e611192565b8061127c575060005460ff16155b6112b75760405162461bcd60e51b815260040180806020018281038252602e815260200180611e6c602e913960400191505060405180910390fd5b600054610100900460ff161580156112e2576000805460ff1961ff0019909116610100171660011790555b6112ea611359565b6112406114f2565b60008282018381101561134c576040805162461bcd60e51b815260206004820152601b60248201527f536166654d6174683a206164646974696f6e206f766572666c6f770000000000604482015290519081900360640190fd5b9392505050565b3b151590565b600054610100900460ff16806113725750611372611192565b80611380575060005460ff16155b6113bb5760405162461bcd60e51b815260040180806020018281038252602e815260200180611e6c602e913960400191505060405180910390fd5b600054610100900460ff16158015611240576000805460ff1961ff0019909116610100171660011790558015611252576000805461ff001916905550565b600054610100900460ff16806114125750611412611192565b80611420575060005460ff16155b61145b5760405162461bcd60e51b815260040180806020018281038252602e815260200180611e6c602e913960400191505060405180910390fd5b600054610100900460ff16158015611486576000805460ff1961ff0019909116610100171660011790555b600061149061118e565b603380546001600160a01b0319166001600160a01b038316908117909155604051919250906000907f8be0079c531659141344cd1fd0a4f28419497f9722a3daafe3b4186f6b6457e0908290a3508015611252576000805461ff001916905550565b600054610100900460ff168061150b575061150b611192565b80611519575060005460ff16155b6115545760405162461bcd60e51b815260040180806020018281038252602e815260200180611e6c602e913960400191505060405180910390fd5b600054610100900460ff1615801561157f576000805460ff1961ff0019909116610100171660011790555b6065805460ff191690558015611252576000805461ff001916905550565b828054600181600116156101000203166002900490600052602060002090601f0160209004810192826115d35760008555611619565b82601f106115ec57805160ff1916838001178555611619565b82800160010185558215611619579182015b828111156116195782518255916020019190600101906115fe565b50611625929150611629565b5090565b5b80821115611625576000815560010161162a565b80356001600160a01b038116811461102357600080fd5b600082601f830112611665578081fd5b8135602061167a61167583611df7565b611dd3565b8281528181019085830183850287018401881015611696578586fd5b855b858110156116bb576116a98261163e565b84529284019290840190600101611698565b5090979650505050505050565b600082601f8301126116d8578081fd5b813560206116e861167583611df7565b82815281810190858301855b858110156116bb5761170b898684358b010161171d565b845292840192908401906001016116f4565b600082601f83011261172d578081fd5b813567ffffffffffffffff81111561174157fe5b611754601f8201601f1916602001611dd3565b818152846020838601011115611768578283fd5b816020850160208301379081016020019190915292915050565b600060208284031215611793578081fd5b61134c8261163e565b600080600080608085870312156117b1578283fd5b6117ba8561163e565b9350602085013567ffffffffffffffff808211156117d6578485fd5b6117e28883890161171d565b94506040870135935060608701359150808211156117fe578283fd5b5061180b8782880161171d565b91505092959194509250565b60008060006060848603121561182b578283fd5b833567ffffffffffffffff80821115611842578485fd5b818601915086601f830112611855578485fd5b8135602061186561167583611df7565b82815281810190858301838502870184018c101561188157898afd5b8996505b848710156118a3578035835260019690960195918301918301611885565b50975050870135925050808211156118b9578384fd5b6118c587838801611655565b935060408601359150808211156118da578283fd5b506118e7868287016116c8565b9150509250925092565b600060208284031215611902578081fd5b8151801515811461134c578182fd5b600060208284031215611922578081fd5b5035919050565b6000806040838503121561193b578182fd5b82359150602083013567ffffffffffffffff811115611958578182fd5b6119648582860161171d565b9150509250929050565b60006020828403121561197f578081fd5b813567ffffffffffffffff811115611995578182fd5b6119a18482850161171d565b949350505050565b600080604083850312156119bb578182fd5b823567ffffffffffffffff8111156119d1578283fd5b6119dd8582860161171d565b95602094909401359450505050565b6000602082840312156119fd578081fd5b5051919050565b60008060008060808587031215611a19578182fd5b84359350602085013567ffffffffffffffff811115611a36578283fd5b611a428782880161171d565b949794965050505060408301359260600135919050565b6000815180845260208085019450808401835b83811015611a8857815187529582019590820190600101611a6c565b509495945050505050565b60008351611aa5818460208801611e15565b9190910191825250602001919050565b7f19457468657265756d205369676e6564204d6573736167653a0a3332000000008152601c810191909152603c0190565b6001600160a01b0391909116815260200190565b6001600160a01b03929092168252602082015260400190565b60006020825261134c6020830184611a59565b600060408252611b396040830185611a59565b828103602084810191909152845180835285820192820190845b818110156116bb5784516001600160a01b031683529383019391830191600101611b53565b901515815260200190565b90815260200190565b928352602083019190915260ff16604082015260600190565b93845260ff9290921660208401526040830152606082015260800190565b6020808252601690820152757461736b20496420616c72656164792065786973747360501b604082015260600190565b6020808252601a908201527f6368616e6e656c20697320616c72656164792064656c65746564000000000000604082015260600190565b6020808252601590820152747461736b204964206973206e6f742065786973747360581b604082015260600190565b60208082526017908201527f766572696679207369676e6174757265206661696c6564000000000000000000604082015260600190565b60208082526018908201527f6172726179206c656e677468206973206e6f742073616d650000000000000000604082015260600190565b602080825260149082015273696e73756666696369656e742062616c616e636560601b604082015260600190565b6020808252601f908201527f7461736b20706f696e7473206d757374206265206d6f7265207468616e203000604082015260600190565b60208082526018908201527f696e76616c6964207369676e6174757265206c656e6774680000000000000000604082015260600190565b6000858252608060208301528451806080840152611d888160a0850160208901611e15565b60408301949094525060ff91909116606082015260a0601f909201601f1916010192915050565b918252602082015260400190565b9283526020830191909152604082015260600190565b60405181810167ffffffffffffffff81118282101715611def57fe5b604052919050565b600067ffffffffffffffff821115611e0b57fe5b5060209081020190565b60005b83811015611e30578181015183820152602001611e18565b83811115611e3f576000848401525b5050505056fe4f776e61626c653a206e6577206f776e657220697320746865207a65726f2061646472657373496e697469616c697a61626c653a20636f6e747261637420697320616c726561647920696e697469616c697a65644f776e61626c653a2063616c6c6572206973206e6f7420746865206f776e6572a2646970667358221220bdfc636d40c6095cd9eb490e1ca6256ed82b50ef653df38d4e452058f0069e5764736f6c63430007060033",
  "immutableReferences": {},
  "source": "pragma solidity ^0.7.6;\r\npragma abicoder v2;\r\nimport \"@openzeppelin/contracts-upgradeable/access/OwnableUpgradeable.sol\";\r\nimport \"@openzeppelin/contracts-upgradeable/utils/PausableUpgradeable.sol\";\r\nimport \"@openzeppelin/contracts/token/ERC20/IERC20.sol\";\r\nimport \"@openzeppelin/contracts/math/SafeMath.sol\";\r\n\r\ncontract PuggMining is OwnableUpgradeable, PausableUpgradeable{\r\n    using SafeMath for uint256;\r\n\r\n    /* --- EVENTS --- */\r\n    event AddTask(uint Id, uint points, uint limit);\r\n    event DelTask(uint Id);\r\n    event DoneTasks(uint[] Ids, address[] addrs);\r\n    event WithdrawPoints(uint amount);\r\n    event WithdrawBaseToken(uint amount);\r\n\r\n    struct Task {\r\n        uint        Id;\r\n        string      name;\r\n        uint        points;\r\n        uint8       active;\r\n    }\r\n\r\n    struct Contributor {\r\n        uint        points;     //total \r\n        uint        balance;    //balance\r\n    }\r\n\r\n    uint[]                              public  allIds;\r\n    mapping(uint => Task)               public  taskmap;\r\n    mapping(address => Contributor)     public  allcontributor;\r\n    address                             public  tokenAddr;\r\n\r\n    function __initialize(address _token) external initializer {\r\n        __Ownable_init();\r\n        __Pausable_init();\r\n        tokenAddr = _token;\r\n    }\r\n    \r\n    function isExist(uint Id) public view returns(bool){\r\n        return taskmap[Id].points != 0;\r\n    }\r\n\r\n    function addTask (uint Id, string memory name, uint points, uint limit) public onlyOwner{\r\n        require(isExist(Id) == false, \"task Id already exists\");\r\n        require(points != 0, \"task points must be more than 0\");\r\n        Task storage task = taskmap[Id];\r\n        task.Id = Id;\r\n        task.name = name;\r\n        task.points = points;\r\n        task.active = 1;\r\n        allIds.push(Id);\r\n        emit AddTask(Id, points, limit);\r\n    }\r\n\r\n    function delTask (uint Id) public onlyOwner {\r\n        require(isExist(Id), \"task Id is not exists\");\r\n        require(taskmap[Id].active == 1, \"channel is already deleted\");\r\n        taskmap[Id].active = 0;\r\n        emit DelTask(Id);\r\n    }\r\n    \r\n    function getAllIds () public view returns(uint[] memory) {\r\n        return allIds;\r\n    }\r\n\r\n    function doneTasks(uint[] memory Ids, address[] memory addrs, bytes[] memory signatures) public onlyOwner {\r\n        require(Ids.length == addrs.length, \"array length is not same\");\r\n        for (uint i = 0; i < Ids.length; i++) {\r\n            require(isExist(Ids[i]), \"task Id is not exists\");\r\n            require(verify(addrs[i], \"doneTask(uint256)\", Ids[i], signatures[i]), \"verify signature failed\");\r\n            Task memory task = taskmap[Ids[i]];\r\n            Contributor storage con = allcontributor[addrs[i]];\r\n            con.points = con.points.add(task.points);\r\n            con.balance = con.balance.add(task.points);\r\n        }\r\n        emit DoneTasks(Ids, addrs);\r\n    }\r\n\r\n    function setToken (address _token) public onlyOwner {\r\n        tokenAddr = _token;\r\n    }\r\n\r\n    function withdrawPoints () public whenNotPaused {\r\n        uint amount = allcontributor[_msgSender()].balance;\r\n        require(amount > 0, \"insufficient balance\");\r\n        allcontributor[_msgSender()].balance = 0;\r\n        IERC20(tokenAddr).transfer(_msgSender(), amount);\r\n        emit WithdrawPoints(amount);\r\n    }\r\n\r\n\r\n    function withdrawToken() public onlyOwner {\r\n        uint balance = IERC20(tokenAddr).balanceOf(address(this));\r\n        IERC20(tokenAddr).transfer(_msgSender(), balance);\r\n        emit WithdrawBaseToken(balance);\r\n    }\r\n\r\n    function getMessageHash(string memory _message, uint Id) public pure returns (bytes32) {\r\n        return keccak256(abi.encodePacked(_message,Id));\r\n    }\r\n\r\n    function getEthSignedMessageHash(bytes32 _messageHash)public pure returns (bytes32) {\r\n        return keccak256(abi.encodePacked(\"\\x19Ethereum Signed Message:\\n32\", _messageHash));\r\n    }\r\n\r\n    function verify(address _signer, string memory _message, uint Id, bytes memory signature) public pure returns (bool) {\r\n        bytes32 messageHash = getMessageHash(_message, Id);\r\n        bytes32 ethSignedMessageHash = getEthSignedMessageHash(messageHash);\r\n        return recoverSigner(ethSignedMessageHash, signature) == _signer;\r\n    }\r\n\r\n    function recoverSigner(bytes32 _ethSignedMessageHash, bytes memory _signature) public pure returns (address) {\r\n        (bytes32 r, bytes32 s, uint8 v) = splitSignature(_signature);\r\n        return ecrecover(_ethSignedMessageHash, v, r, s);\r\n    }\r\n\r\n    function splitSignature(bytes memory sig)\r\n        public\r\n        pure\r\n        returns (\r\n            bytes32 r,\r\n            bytes32 s,\r\n            uint8 v\r\n        )\r\n    {\r\n        require(sig.length == 65, \"invalid signature length\");\r\n\r\n        assembly {\r\n            /*\r\n            First 32 bytes stores the length of the signature\r\n\r\n            add(sig, 32) = pointer of sig + 32\r\n            effectively, skips first 32 bytes of signature\r\n\r\n            mload(p) loads next 32 bytes starting at the memory address p into memory\r\n            */\r\n\r\n            // first 32 bytes, after the length prefix\r\n            r := mload(add(sig, 32))\r\n            // second 32 bytes\r\n            s := mload(add(sig, 64))\r\n            // final byte (first byte of the next 32 bytes)\r\n            v := byte(0, mload(add(sig, 96)))\r\n        }\r\n\r\n        // implicitly return (r, s, v)\r\n    }\r\n}",
  "sourcePath": "D:/Work/solidity/NFT/pugg-mining/contracts/PuggMining.sol",
  "compiler": {
    "name": "solc",
    "version": "0.7.6+commit.7338295f.Emscripten.clang"
  },
  "schemaVersion": "3.3.4",
  "updatedAt": "2022-01-10T14:21:32.467Z",
  "devdoc": {
    "kind": "dev",
    "methods": {
      "owner()": {
        "details": "Returns the address of the current owner."
      },
      "paused()": {
        "details": "Returns true if the contract is paused, and false otherwise."
      },
      "renounceOwnership()": {
        "details": "Leaves the contract without owner. It will not be possible to call `onlyOwner` functions anymore. Can only be called by the current owner. NOTE: Renouncing ownership will leave the contract without an owner, thereby removing any functionality that is only available to the owner."
      },
      "transferOwnership(address)": {
        "details": "Transfers ownership of the contract to a new account (`newOwner`). Can only be called by the current owner."
      }
    },
    "version": 1
  },
  "userdoc": {
    "kind": "user",
    "methods": {},
    "version": 1
  }
}