{
  "contractName": "PuggMining",
  "abi": [
    {
      "anonymous": false,
      "inputs": [
        {
          "indexed": false,
          "internalType": "uint256",
          "name": "Id",
          "type": "uint256"
        },
        {
          "indexed": false,
          "internalType": "string",
          "name": "name",
          "type": "string"
        },
        {
          "indexed": false,
          "internalType": "uint256",
          "name": "points",
          "type": "uint256"
        }
      ],
      "name": "AddTask",
      "type": "event"
    },
    {
      "anonymous": false,
      "inputs": [
        {
          "indexed": false,
          "internalType": "uint256",
          "name": "Id",
          "type": "uint256"
        }
      ],
      "name": "DelTask",
      "type": "event"
    },
    {
      "anonymous": false,
      "inputs": [
        {
          "indexed": false,
          "internalType": "uint256[]",
          "name": "Ids",
          "type": "uint256[]"
        },
        {
          "indexed": false,
          "internalType": "address[]",
          "name": "addrs",
          "type": "address[]"
        }
      ],
      "name": "DoneTasks",
      "type": "event"
    },
    {
      "anonymous": false,
      "inputs": [
        {
          "indexed": true,
          "internalType": "address",
          "name": "previousOwner",
          "type": "address"
        },
        {
          "indexed": true,
          "internalType": "address",
          "name": "newOwner",
          "type": "address"
        }
      ],
      "name": "OwnershipTransferred",
      "type": "event"
    },
    {
      "anonymous": false,
      "inputs": [
        {
          "indexed": false,
          "internalType": "address",
          "name": "account",
          "type": "address"
        }
      ],
      "name": "Paused",
      "type": "event"
    },
    {
      "anonymous": false,
      "inputs": [
        {
          "indexed": false,
          "internalType": "address",
          "name": "account",
          "type": "address"
        }
      ],
      "name": "Unpaused",
      "type": "event"
    },
    {
      "anonymous": false,
      "inputs": [
        {
          "indexed": false,
          "internalType": "uint256",
          "name": "amount",
          "type": "uint256"
        }
      ],
      "name": "WithdrawBaseToken",
      "type": "event"
    },
    {
      "anonymous": false,
      "inputs": [
        {
          "indexed": false,
          "internalType": "uint256",
          "name": "amount",
          "type": "uint256"
        }
      ],
      "name": "WithdrawPoints",
      "type": "event"
    },
    {
      "inputs": [
        {
          "internalType": "uint256",
          "name": "",
          "type": "uint256"
        }
      ],
      "name": "allIds",
      "outputs": [
        {
          "internalType": "uint256",
          "name": "",
          "type": "uint256"
        }
      ],
      "stateMutability": "view",
      "type": "function"
    },
    {
      "inputs": [
        {
          "internalType": "address",
          "name": "",
          "type": "address"
        }
      ],
      "name": "allcontributor",
      "outputs": [
        {
          "internalType": "uint256",
          "name": "points",
          "type": "uint256"
        },
        {
          "internalType": "uint256",
          "name": "balance",
          "type": "uint256"
        }
      ],
      "stateMutability": "view",
      "type": "function"
    },
    {
      "inputs": [],
      "name": "owner",
      "outputs": [
        {
          "internalType": "address",
          "name": "",
          "type": "address"
        }
      ],
      "stateMutability": "view",
      "type": "function"
    },
    {
      "inputs": [],
      "name": "paused",
      "outputs": [
        {
          "internalType": "bool",
          "name": "",
          "type": "bool"
        }
      ],
      "stateMutability": "view",
      "type": "function"
    },
    {
      "inputs": [],
      "name": "renounceOwnership",
      "outputs": [],
      "stateMutability": "nonpayable",
      "type": "function"
    },
    {
      "inputs": [
        {
          "internalType": "uint256",
          "name": "",
          "type": "uint256"
        }
      ],
      "name": "taskmap",
      "outputs": [
        {
          "internalType": "uint256",
          "name": "Id",
          "type": "uint256"
        },
        {
          "internalType": "string",
          "name": "name",
          "type": "string"
        },
        {
          "internalType": "uint256",
          "name": "points",
          "type": "uint256"
        },
        {
          "internalType": "uint8",
          "name": "active",
          "type": "uint8"
        }
      ],
      "stateMutability": "view",
      "type": "function"
    },
    {
      "inputs": [],
      "name": "tokenAddr",
      "outputs": [
        {
          "internalType": "address",
          "name": "",
          "type": "address"
        }
      ],
      "stateMutability": "view",
      "type": "function"
    },
    {
      "inputs": [
        {
          "internalType": "address",
          "name": "newOwner",
          "type": "address"
        }
      ],
      "name": "transferOwnership",
      "outputs": [],
      "stateMutability": "nonpayable",
      "type": "function"
    },
    {
      "inputs": [
        {
          "internalType": "address",
          "name": "_token",
          "type": "address"
        }
      ],
      "name": "__initialize",
      "outputs": [],
      "stateMutability": "nonpayable",
      "type": "function"
    },
    {
      "inputs": [
        {
          "internalType": "uint256",
          "name": "taskId",
          "type": "uint256"
        }
      ],
      "name": "isExist",
      "outputs": [
        {
          "internalType": "bool",
          "name": "",
          "type": "bool"
        }
      ],
      "stateMutability": "view",
      "type": "function"
    },
    {
      "inputs": [
        {
          "internalType": "uint256",
          "name": "taskId",
          "type": "uint256"
        },
        {
          "internalType": "string",
          "name": "name",
          "type": "string"
        },
        {
          "internalType": "uint256",
          "name": "points",
          "type": "uint256"
        }
      ],
      "name": "addTask",
      "outputs": [],
      "stateMutability": "nonpayable",
      "type": "function"
    },
    {
      "inputs": [
        {
          "internalType": "uint256",
          "name": "taskId",
          "type": "uint256"
        }
      ],
      "name": "delTask",
      "outputs": [],
      "stateMutability": "nonpayable",
      "type": "function"
    },
    {
      "inputs": [],
      "name": "getAllIds",
      "outputs": [
        {
          "internalType": "uint256[]",
          "name": "",
          "type": "uint256[]"
        }
      ],
      "stateMutability": "view",
      "type": "function"
    },
    {
      "inputs": [
        {
          "internalType": "uint256[]",
          "name": "taskIds",
          "type": "uint256[]"
        },
        {
          "internalType": "address[]",
          "name": "accounts",
          "type": "address[]"
        },
        {
          "internalType": "bytes[]",
          "name": "signatures",
          "type": "bytes[]"
        }
      ],
      "name": "doneTasks",
      "outputs": [],
      "stateMutability": "nonpayable",
      "type": "function"
    },
    {
      "inputs": [
        {
          "internalType": "address",
          "name": "_token",
          "type": "address"
        }
      ],
      "name": "setToken",
      "outputs": [],
      "stateMutability": "nonpayable",
      "type": "function"
    },
    {
      "inputs": [],
      "name": "withdrawPoints",
      "outputs": [],
      "stateMutability": "nonpayable",
      "type": "function"
    },
    {
      "inputs": [],
      "name": "withdrawToken",
      "outputs": [],
      "stateMutability": "nonpayable",
      "type": "function"
    },
    {
      "inputs": [
        {
          "internalType": "string",
          "name": "_message",
          "type": "string"
        },
        {
          "internalType": "uint256",
          "name": "Id",
          "type": "uint256"
        }
      ],
      "name": "getMessageHash",
      "outputs": [
        {
          "internalType": "bytes32",
          "name": "",
          "type": "bytes32"
        }
      ],
      "stateMutability": "pure",
      "type": "function"
    },
    {
      "inputs": [
        {
          "internalType": "bytes32",
          "name": "_messageHash",
          "type": "bytes32"
        }
      ],
      "name": "getEthSignedMessageHash",
      "outputs": [
        {
          "internalType": "bytes32",
          "name": "",
          "type": "bytes32"
        }
      ],
      "stateMutability": "pure",
      "type": "function"
    },
    {
      "inputs": [
        {
          "internalType": "address",
          "name": "_signer",
          "type": "address"
        },
        {
          "internalType": "string",
          "name": "_message",
          "type": "string"
        },
        {
          "internalType": "uint256",
          "name": "Id",
          "type": "uint256"
        },
        {
          "internalType": "bytes",
          "name": "signature",
          "type": "bytes"
        }
      ],
      "name": "verify",
      "outputs": [
        {
          "internalType": "bool",
          "name": "",
          "type": "bool"
        }
      ],
      "stateMutability": "pure",
      "type": "function"
    },
    {
      "inputs": [
        {
          "internalType": "bytes32",
          "name": "_ethSignedMessageHash",
          "type": "bytes32"
        },
        {
          "internalType": "bytes",
          "name": "_signature",
          "type": "bytes"
        }
      ],
      "name": "recoverSigner",
      "outputs": [
        {
          "internalType": "address",
          "name": "",
          "type": "address"
        }
      ],
      "stateMutability": "pure",
      "type": "function"
    },
    {
      "inputs": [
        {
          "internalType": "bytes",
          "name": "sig",
          "type": "bytes"
        }
      ],
      "name": "splitSignature",
      "outputs": [
        {
          "internalType": "bytes32",
          "name": "r",
          "type": "bytes32"
        },
        {
          "internalType": "bytes32",
          "name": "s",
          "type": "bytes32"
        },
        {
          "internalType": "uint8",
          "name": "v",
          "type": "uint8"
        }
      ],
      "stateMutability": "pure",
      "type": "function"
    }
  ],
  "bytecode": "0x608060405234801561001057600080fd5b50611f2e806100206000396000f3fe608060405234801561001057600080fd5b50600436106101425760003560e01c80639a31ea06116100b8578063ca628c781161007c578063ca628c78146102a1578063ca8f8ff3146102a9578063d4aa6916146102bc578063e33c9377146102cf578063f2fde38b146102e2578063fa540801146102f557610142565b80639a31ea061461021e5780639b6016d41461023f578063a361881514610262578063a7bb58031461026a578063aaa44e5c1461028c57610142565b80635c975abb1161010a5780635c975abb146101be5780635fbe4d1d146101c6578063692776ea146101db578063715018a6146101fb5780638da5cb5b1461020357806397aba7f91461020b57610142565b806307546f1a14610147578063144fa6d714610170578063169cbb25146101855780633ddccd781461019857806359be7e9d146101ab575b600080fd5b61015a6101553660046117bc565b610308565b6040516101679190611bbd565b60405180910390f35b61018361017e3660046117a2565b61034d565b005b6101836101933660046117a2565b6103d1565b6101836101a6366004611837565b61049f565b6101836101b9366004611931565b6107d4565b61015a6108e3565b6101ce6108ec565b6040516101679190611b2b565b6101ee6101e9366004611931565b6108fb565b6040516101679190611bc8565b61018361091c565b6101ce6109c8565b6101ce610219366004611949565b6109d7565b61023161022c3660046117a2565b610a46565b604051610167929190611e04565b61025261024d366004611931565b610a5f565b6040516101679493929190611dd1565b610183610b16565b61027d61027836600461198e565b610c98565b60405161016793929190611bd1565b610294610cdc565b6040516101679190611b58565b610183610d34565b61015a6102b7366004611931565b610ed3565b6101ee6102ca3660046119c9565b610eed565b6101836102dd366004611a24565b610f20565b6101836102f03660046117a2565b61107b565b6101ee610303366004611931565b61117e565b6000806103158585610eed565b905060006103228261117e565b9050866001600160a01b031661033882866109d7565b6001600160a01b031614979650505050505050565b6103556111ae565b6001600160a01b03166103666109c8565b6001600160a01b0316146103af576040805162461bcd60e51b81526020600482018190526024820152600080516020611ed9833981519152604482015290519081900360640190fd5b609a80546001600160a01b0319166001600160a01b0392909216919091179055565b600054610100900460ff16806103ea57506103ea6111b2565b806103f8575060005460ff16155b6104335760405162461bcd60e51b815260040180806020018281038252602e815260200180611eab602e913960400191505060405180910390fd5b600054610100900460ff1615801561045e576000805460ff1961ff0019909116610100171660011790555b6104666111c3565b61046e611275565b609a80546001600160a01b0319166001600160a01b038416179055801561049b576000805461ff00191690555b5050565b6104a76111ae565b6001600160a01b03166104b86109c8565b6001600160a01b031614610501576040805162461bcd60e51b81526020600482018190526024820152600080516020611ed9833981519152604482015290519081900360640190fd5b815183511461052b5760405162461bcd60e51b815260040161052290611cd5565b60405180910390fd5b805183511461054c5760405162461bcd60e51b815260040161052290611cd5565b60005b83518110156107955761057484828151811061056757fe5b6020026020010151610ed3565b6105905760405162461bcd60e51b815260040161052290611c6f565b6105fe83828151811061059f57fe5b602002602001015160405180604001604052806011815260200170646f6e655461736b2875696e743235362960781b8152508684815181106105dd57fe5b60200260200101518585815181106105f157fe5b6020026020010151610308565b61061a5760405162461bcd60e51b815260040161052290611c9e565b60006098600086848151811061062c57fe5b6020026020010151815260200190815260200160002060405180608001604052908160008201548152602001600182018054600181600116156101000203166002900480601f0160208091040260200160405190810160405280929190818152602001828054600181600116156101000203166002900480156106f05780601f106106c5576101008083540402835291602001916106f0565b820191906000526020600020905b8154815290600101906020018083116106d357829003601f168201915b50505091835250506002820154602082015260039091015460ff166040909101528451909150600090609990829087908690811061072a57fe5b60200260200101516001600160a01b03166001600160a01b03168152602001908152602001600020905061076f8260400151826000015461131290919063ffffffff16565b81556040820151600182015461078491611312565b60019182015591909101905061054f565b507f7f2284b1987e5bf6815d86fb99139103509c037f06a786ddcd1adafc1f4dda4a83836040516107c7929190611b6b565b60405180910390a1505050565b6107dc6111ae565b6001600160a01b03166107ed6109c8565b6001600160a01b031614610836576040805162461bcd60e51b81526020600482018190526024820152600080516020611ed9833981519152604482015290519081900360640190fd5b61083f81610ed3565b61085b5760405162461bcd60e51b815260040161052290611c6f565b60008181526098602052604090206003015460ff1660011461088f5760405162461bcd60e51b815260040161052290611c38565b60008181526098602052604090819020600301805460ff19169055517f3ebbfc48089fe0b0d88d088526ef576e4c5d082ea00039709868566129cd92ae906108d8908390611bc8565b60405180910390a150565b60655460ff1690565b609a546001600160a01b031681565b6097818154811061090b57600080fd5b600091825260209091200154905081565b6109246111ae565b6001600160a01b03166109356109c8565b6001600160a01b03161461097e576040805162461bcd60e51b81526020600482018190526024820152600080516020611ed9833981519152604482015290519081900360640190fd5b6033546040516000916001600160a01b0316907f8be0079c531659141344cd1fd0a4f28419497f9722a3daafe3b4186f6b6457e0908390a3603380546001600160a01b0319169055565b6033546001600160a01b031690565b6000806000806109e685610c98565b92509250925060018682858560405160008152602001604052604051610a0f9493929190611bea565b6020604051602081039080840390855afa158015610a31573d6000803e3d6000fd5b5050604051601f190151979650505050505050565b6099602052600090815260409020805460019091015482565b6098602090815260009182526040918290208054600180830180548651600293821615610100026000190190911692909204601f810186900486028301860190965285825291949293909290830182828015610afc5780601f10610ad157610100808354040283529160200191610afc565b820191906000526020600020905b815481529060010190602001808311610adf57829003601f168201915b50505050600283015460039093015491929160ff16905084565b610b1e6108e3565b15610b63576040805162461bcd60e51b815260206004820152601060248201526f14185d5cd8589b194e881c185d5cd95960821b604482015290519081900360640190fd5b600060996000610b716111ae565b6001600160a01b03166001600160a01b0316815260200190815260200160002060010154905060008111610bb75760405162461bcd60e51b815260040161052290611d0c565b600060996000610bc56111ae565b6001600160a01b039081168252602082019290925260400160002060010191909155609a541663a9059cbb610bf86111ae565b836040518363ffffffff1660e01b8152600401610c16929190611b3f565b602060405180830381600087803b158015610c3057600080fd5b505af1158015610c44573d6000803e3d6000fd5b505050506040513d601f19601f82011682018060405250810190610c689190611911565b507f9d1f9833d9dc32a135e4e9514abca65cfe302b0a42c9fe4ecfb741cc70781687816040516108d89190611bc8565b60008060008351604114610cbe5760405162461bcd60e51b815260040161052290611d71565b50505060208101516040820151606090920151909260009190911a90565b60606097805480602002602001604051908101604052809291908181526020018280548015610d2a57602002820191906000526020600020905b815481526020019060010190808311610d16575b5050505050905090565b610d3c6111ae565b6001600160a01b0316610d4d6109c8565b6001600160a01b031614610d96576040805162461bcd60e51b81526020600482018190526024820152600080516020611ed9833981519152604482015290519081900360640190fd5b609a546040516370a0823160e01b81526000916001600160a01b0316906370a0823190610dc7903090600401611b2b565b60206040518083038186803b158015610ddf57600080fd5b505afa158015610df3573d6000803e3d6000fd5b505050506040513d601f19601f82011682018060405250810190610e179190611a0c565b609a549091506001600160a01b031663a9059cbb610e336111ae565b836040518363ffffffff1660e01b8152600401610e51929190611b3f565b602060405180830381600087803b158015610e6b57600080fd5b505af1158015610e7f573d6000803e3d6000fd5b505050506040513d601f19601f82011682018060405250810190610ea39190611911565b507fb2bb0dfcb129450f60feb4b7ed006d063b0e1687420fd4e6f3e7ebaf7540aa90816040516108d89190611bc8565b60008181526098602052604090206002015415155b919050565b60008282604051602001610f02929190611ad8565b60405160208183030381529060405280519060200120905092915050565b610f286111ae565b6001600160a01b0316610f396109c8565b6001600160a01b031614610f82576040805162461bcd60e51b81526020600482018190526024820152600080516020611ed9833981519152604482015290519081900360640190fd5b610f8b83610ed3565b15610fa85760405162461bcd60e51b815260040161052290611c08565b80610fc55760405162461bcd60e51b815260040161052290611d3a565b600083815260986020908152604090912084815583519091610fee9160018401918601906115bd565b506002810182905560038101805460ff191660019081179091556097805491820181556000527f354a83ed9988f79f6038d4c7a7dadbad8af32f4ad6df893e0e5807a1b1944ff9018490556040517f7e59ec17a115a14324de4a65e768c19d93689db68eb72e26e18717bea1c6cf5a9061106d90869086908690611da8565b60405180910390a150505050565b6110836111ae565b6001600160a01b03166110946109c8565b6001600160a01b0316146110dd576040805162461bcd60e51b81526020600482018190526024820152600080516020611ed9833981519152604482015290519081900360640190fd5b6001600160a01b0381166111225760405162461bcd60e51b8152600401808060200182810382526026815260200180611e856026913960400191505060405180910390fd5b6033546040516001600160a01b038084169216907f8be0079c531659141344cd1fd0a4f28419497f9722a3daafe3b4186f6b6457e090600090a3603380546001600160a01b0319166001600160a01b0392909216919091179055565b6000816040516020016111919190611afa565b604051602081830303815290604052805190602001209050919050565b3390565b60006111bd30611373565b15905090565b600054610100900460ff16806111dc57506111dc6111b2565b806111ea575060005460ff16155b6112255760405162461bcd60e51b815260040180806020018281038252602e815260200180611eab602e913960400191505060405180910390fd5b600054610100900460ff16158015611250576000805460ff1961ff0019909116610100171660011790555b611258611379565b611260611419565b8015611272576000805461ff00191690555b50565b600054610100900460ff168061128e575061128e6111b2565b8061129c575060005460ff16155b6112d75760405162461bcd60e51b815260040180806020018281038252602e815260200180611eab602e913960400191505060405180910390fd5b600054610100900460ff16158015611302576000805460ff1961ff0019909116610100171660011790555b61130a611379565b611260611512565b60008282018381101561136c576040805162461bcd60e51b815260206004820152601b60248201527f536166654d6174683a206164646974696f6e206f766572666c6f770000000000604482015290519081900360640190fd5b9392505050565b3b151590565b600054610100900460ff168061139257506113926111b2565b806113a0575060005460ff16155b6113db5760405162461bcd60e51b815260040180806020018281038252602e815260200180611eab602e913960400191505060405180910390fd5b600054610100900460ff16158015611260576000805460ff1961ff0019909116610100171660011790558015611272576000805461ff001916905550565b600054610100900460ff168061143257506114326111b2565b80611440575060005460ff16155b61147b5760405162461bcd60e51b815260040180806020018281038252602e815260200180611eab602e913960400191505060405180910390fd5b600054610100900460ff161580156114a6576000805460ff1961ff0019909116610100171660011790555b60006114b06111ae565b603380546001600160a01b0319166001600160a01b038316908117909155604051919250906000907f8be0079c531659141344cd1fd0a4f28419497f9722a3daafe3b4186f6b6457e0908290a3508015611272576000805461ff001916905550565b600054610100900460ff168061152b575061152b6111b2565b80611539575060005460ff16155b6115745760405162461bcd60e51b815260040180806020018281038252602e815260200180611eab602e913960400191505060405180910390fd5b600054610100900460ff1615801561159f576000805460ff1961ff0019909116610100171660011790555b6065805460ff191690558015611272576000805461ff001916905550565b828054600181600116156101000203166002900490600052602060002090601f0160209004810192826115f35760008555611639565b82601f1061160c57805160ff1916838001178555611639565b82800160010185558215611639579182015b8281111561163957825182559160200191906001019061161e565b50611645929150611649565b5090565b5b80821115611645576000815560010161164a565b80356001600160a01b0381168114610ee857600080fd5b600082601f830112611685578081fd5b8135602061169a61169583611e36565b611e12565b82815281810190858301838502870184018810156116b6578586fd5b855b858110156116db576116c98261165e565b845292840192908401906001016116b8565b5090979650505050505050565b600082601f8301126116f8578081fd5b8135602061170861169583611e36565b82815281810190858301855b858110156116db5761172b898684358b010161173d565b84529284019290840190600101611714565b600082601f83011261174d578081fd5b813567ffffffffffffffff81111561176157fe5b611774601f8201601f1916602001611e12565b818152846020838601011115611788578283fd5b816020850160208301379081016020019190915292915050565b6000602082840312156117b3578081fd5b61136c8261165e565b600080600080608085870312156117d1578283fd5b6117da8561165e565b9350602085013567ffffffffffffffff808211156117f6578485fd5b6118028883890161173d565b945060408701359350606087013591508082111561181e578283fd5b5061182b8782880161173d565b91505092959194509250565b60008060006060848603121561184b578283fd5b833567ffffffffffffffff80821115611862578485fd5b818601915086601f830112611875578485fd5b8135602061188561169583611e36565b82815281810190858301838502870184018c10156118a157898afd5b8996505b848710156118c35780358352600196909601959183019183016118a5565b50975050870135925050808211156118d9578384fd5b6118e587838801611675565b935060408601359150808211156118fa578283fd5b50611907868287016116e8565b9150509250925092565b600060208284031215611922578081fd5b8151801515811461136c578182fd5b600060208284031215611942578081fd5b5035919050565b6000806040838503121561195b578182fd5b82359150602083013567ffffffffffffffff811115611978578182fd5b6119848582860161173d565b9150509250929050565b60006020828403121561199f578081fd5b813567ffffffffffffffff8111156119b5578182fd5b6119c18482850161173d565b949350505050565b600080604083850312156119db578182fd5b823567ffffffffffffffff8111156119f1578283fd5b6119fd8582860161173d565b95602094909401359450505050565b600060208284031215611a1d578081fd5b5051919050565b600080600060608486031215611a38578081fd5b83359250602084013567ffffffffffffffff811115611a55578182fd5b611a618682870161173d565b925050604084013590509250925092565b6000815180845260208085019450808401835b83811015611aa157815187529582019590820190600101611a85565b509495945050505050565b60008151808452611ac4816020860160208601611e54565b601f01601f19169290920160200192915050565b60008351611aea818460208801611e54565b9190910191825250602001919050565b7f19457468657265756d205369676e6564204d6573736167653a0a3332000000008152601c810191909152603c0190565b6001600160a01b0391909116815260200190565b6001600160a01b03929092168252602082015260400190565b60006020825261136c6020830184611a72565b600060408252611b7e6040830185611a72565b828103602084810191909152845180835285820192820190845b818110156116db5784516001600160a01b031683529383019391830191600101611b98565b901515815260200190565b90815260200190565b928352602083019190915260ff16604082015260600190565b93845260ff9290921660208401526040830152606082015260800190565b6020808252601690820152757461736b20496420616c72656164792065786973747360501b604082015260600190565b6020808252601a908201527f6368616e6e656c20697320616c72656164792064656c65746564000000000000604082015260600190565b6020808252601590820152747461736b204964206973206e6f742065786973747360581b604082015260600190565b60208082526017908201527f766572696679207369676e6174757265206661696c6564000000000000000000604082015260600190565b60208082526018908201527f6172726179206c656e677468206973206e6f742073616d650000000000000000604082015260600190565b602080825260149082015273696e73756666696369656e742062616c616e636560601b604082015260600190565b6020808252601f908201527f7461736b20706f696e7473206d757374206265206d6f7265207468616e203000604082015260600190565b60208082526018908201527f696e76616c6964207369676e6174757265206c656e6774680000000000000000604082015260600190565b600084825260606020830152611dc16060830185611aac565b9050826040830152949350505050565b600085825260806020830152611dea6080830186611aac565b905083604083015260ff8316606083015295945050505050565b918252602082015260400190565b60405181810167ffffffffffffffff81118282101715611e2e57fe5b604052919050565b600067ffffffffffffffff821115611e4a57fe5b5060209081020190565b60005b83811015611e6f578181015183820152602001611e57565b83811115611e7e576000848401525b5050505056fe4f776e61626c653a206e6577206f776e657220697320746865207a65726f2061646472657373496e697469616c697a61626c653a20636f6e747261637420697320616c726561647920696e697469616c697a65644f776e61626c653a2063616c6c6572206973206e6f7420746865206f776e6572a2646970667358221220e94231131358a8eb3340315984c5d991ffa47a149b327912d29bf545a0ce88d664736f6c63430007060033",
  "immutableReferences": {},
  "source": "pragma solidity ^0.7.6;\r\npragma abicoder v2;\r\nimport \"@openzeppelin/contracts-upgradeable/access/OwnableUpgradeable.sol\";\r\nimport \"@openzeppelin/contracts-upgradeable/utils/PausableUpgradeable.sol\";\r\nimport \"@openzeppelin/contracts/token/ERC20/IERC20.sol\";\r\nimport \"@openzeppelin/contracts/math/SafeMath.sol\";\r\n\r\ncontract PuggMining is OwnableUpgradeable, PausableUpgradeable{\r\n    using SafeMath for uint256;\r\n\r\n    /* --- EVENTS --- */\r\n    event AddTask(uint Id, string name, uint points);\r\n    event DelTask(uint Id);\r\n    event DoneTasks(uint[] Ids, address[] addrs);\r\n    event WithdrawPoints(uint amount);\r\n    event WithdrawBaseToken(uint amount);\r\n\r\n    struct Task {\r\n        uint        Id;\r\n        string      name;\r\n        uint        points;\r\n        uint8       active;\r\n    }\r\n\r\n    struct Contributor {\r\n        uint        points;     //total \r\n        uint        balance;    //balance\r\n    }\r\n\r\n    uint[]                              public  allIds;\r\n    mapping(uint => Task)               public  taskmap;\r\n    mapping(address => Contributor)     public  allcontributor;\r\n    address                             public  tokenAddr;\r\n\r\n    function __initialize(address _token) external initializer {\r\n        __Ownable_init();\r\n        __Pausable_init();\r\n        tokenAddr = _token;\r\n    }\r\n    \r\n    function isExist(uint taskId) public view returns(bool){\r\n        return taskmap[taskId].points != 0;\r\n    }\r\n\r\n    function addTask (uint taskId, string memory name, uint points) public onlyOwner{\r\n        require(isExist(taskId) == false, \"task Id already exists\");\r\n        require(points != 0, \"task points must be more than 0\");\r\n        Task storage task = taskmap[taskId];\r\n        task.Id = taskId;\r\n        task.name = name;\r\n        task.points = points;\r\n        task.active = 1;\r\n        allIds.push(taskId);\r\n        emit AddTask(taskId, name, points);\r\n    }\r\n\r\n    function delTask (uint taskId) public onlyOwner {\r\n        require(isExist(taskId), \"task Id is not exists\");\r\n        require(taskmap[taskId].active == 1, \"channel is already deleted\");\r\n        taskmap[taskId].active = 0;\r\n        emit DelTask(taskId);\r\n    }\r\n    \r\n    function getAllIds () public view returns(uint[] memory) {\r\n        return allIds;\r\n    }\r\n\r\n    function doneTasks(uint[] memory taskIds, address[] memory accounts, bytes[] memory signatures) public onlyOwner {\r\n        require(taskIds.length == accounts.length, \"array length is not same\");\r\n        require(taskIds.length == signatures.length, \"array length is not same\");\r\n        for (uint i = 0; i < taskIds.length; i++) {\r\n            require(isExist(taskIds[i]), \"task Id is not exists\");\r\n            require(verify(accounts[i], \"doneTask(uint256)\", taskIds[i], signatures[i]), \"verify signature failed\");\r\n            Task memory task = taskmap[taskIds[i]];\r\n            Contributor storage con = allcontributor[accounts[i]];\r\n            con.points = con.points.add(task.points);\r\n            con.balance = con.balance.add(task.points);\r\n        }\r\n        emit DoneTasks(taskIds, accounts);\r\n    }\r\n\r\n    function setToken (address _token) public onlyOwner {\r\n        tokenAddr = _token;\r\n    }\r\n\r\n    function withdrawPoints () public whenNotPaused {\r\n        uint amount = allcontributor[_msgSender()].balance;\r\n        require(amount > 0, \"insufficient balance\");\r\n        allcontributor[_msgSender()].balance = 0;\r\n        IERC20(tokenAddr).transfer(_msgSender(), amount);\r\n        emit WithdrawPoints(amount);\r\n    }\r\n\r\n\r\n    function withdrawToken() public onlyOwner {\r\n        uint balance = IERC20(tokenAddr).balanceOf(address(this));\r\n        IERC20(tokenAddr).transfer(_msgSender(), balance);\r\n        emit WithdrawBaseToken(balance);\r\n    }\r\n\r\n    function getMessageHash(string memory _message, uint Id) public pure returns (bytes32) {\r\n        return keccak256(abi.encodePacked(_message,Id));\r\n    }\r\n\r\n    function getEthSignedMessageHash(bytes32 _messageHash)public pure returns (bytes32) {\r\n        return keccak256(abi.encodePacked(\"\\x19Ethereum Signed Message:\\n32\", _messageHash));\r\n    }\r\n\r\n    function verify(address _signer, string memory _message, uint Id, bytes memory signature) public pure returns (bool) {\r\n        bytes32 messageHash = getMessageHash(_message, Id);\r\n        bytes32 ethSignedMessageHash = getEthSignedMessageHash(messageHash);\r\n        return recoverSigner(ethSignedMessageHash, signature) == _signer;\r\n    }\r\n\r\n    function recoverSigner(bytes32 _ethSignedMessageHash, bytes memory _signature) public pure returns (address) {\r\n        (bytes32 r, bytes32 s, uint8 v) = splitSignature(_signature);\r\n        return ecrecover(_ethSignedMessageHash, v, r, s);\r\n    }\r\n\r\n    function splitSignature(bytes memory sig)\r\n        public\r\n        pure\r\n        returns (\r\n            bytes32 r,\r\n            bytes32 s,\r\n            uint8 v\r\n        )\r\n    {\r\n        require(sig.length == 65, \"invalid signature length\");\r\n\r\n        assembly {\r\n            /*\r\n            First 32 bytes stores the length of the signature\r\n\r\n            add(sig, 32) = pointer of sig + 32\r\n            effectively, skips first 32 bytes of signature\r\n\r\n            mload(p) loads next 32 bytes starting at the memory address p into memory\r\n            */\r\n\r\n            // first 32 bytes, after the length prefix\r\n            r := mload(add(sig, 32))\r\n            // second 32 bytes\r\n            s := mload(add(sig, 64))\r\n            // final byte (first byte of the next 32 bytes)\r\n            v := byte(0, mload(add(sig, 96)))\r\n        }\r\n\r\n        // implicitly return (r, s, v)\r\n    }\r\n}",
  "sourcePath": "D:/Work/solidity/NFT/pugg-mining/contracts/PuggMining.sol",
  "compiler": {
    "name": "solc",
    "version": "0.7.6+commit.7338295f.Emscripten.clang"
  },
  "schemaVersion": "3.3.4",
  "updatedAt": "2022-01-10T15:51:12.617Z",
  "devdoc": {
    "kind": "dev",
    "methods": {
      "owner()": {
        "details": "Returns the address of the current owner."
      },
      "paused()": {
        "details": "Returns true if the contract is paused, and false otherwise."
      },
      "renounceOwnership()": {
        "details": "Leaves the contract without owner. It will not be possible to call `onlyOwner` functions anymore. Can only be called by the current owner. NOTE: Renouncing ownership will leave the contract without an owner, thereby removing any functionality that is only available to the owner."
      },
      "transferOwnership(address)": {
        "details": "Transfers ownership of the contract to a new account (`newOwner`). Can only be called by the current owner."
      }
    },
    "version": 1
  },
  "userdoc": {
    "kind": "user",
    "methods": {},
    "version": 1
  }
}